:10000000C2C0DCC0DBC0DAC0D9C0D8C0D7C0D6C03F
:10001000D5C0D4C01AC3D2C017C3D0C0CFC0204EE1
:10002000414D4500484947482000204F5645520061
:100030002047414D45004650532020004C45560076
:1000400053434F5245000E11131519110E0E04049F
:10005000040406041F02040810110E0E11100804F7
:10006000081F08081F090A0C080E1110100F011FA5
:100070000E11110F01020C0202020408101F0E11D2
:10008000110E11110E0608101E11110E11111F1163
:10009000110A040F11110F11110F0E11010101119D
:1000A0000E070911111109071F01010F01011F019D
:1000B00001010F01011F1E11111D01110E1111115E
:1000C0001F1111110E04040404040E060908080887
:1000D000081C110905030509111F01010101010196
:1000E00011111115151B11111119151311110E11E3
:1000F000111111110E0101010F11110F1609151126
:1001000011110E1109050F11110F0F10100E010121
:100110001E0404040404041F0E1111111111110412
:100120000A11111111110A15151511111111110AC8
:10013000040A11110404040A1111111F0102040818
:10014000101F000F4444F0002222700122067400A8
:100150002302700426027100220360066006600616
:1001600060063006640263003201700262027200AF
:1001700032026003620436003102DBB66DDBC8A1D7
:10018000A81FDA028D1411241FBECFE5D1E0DEBF17
:10019000CDBF10E0A0E6B0E0E4EFFFE002C00590C4
:1001A0000D92A436B107D9F720E0A4E6B0E001C073
:1001B0001D92A83DB207E1F75FD21AC721CF4F9237
:1001C0005F926F927F928F929F92AF92BF92EF92C7
:1001D000FF920F931F93CF93DF93880F880F962F73
:1001E000990F690F6F5FC82FD0E08E010C5F1F4F12
:1001F000C017D107C4F550E0440F551F4E5B5E4F4A
:10020000EE24E394F12CFA01A591B491F70102C018
:10021000EE0FFF1FCA95E2F7AE23BF23AB2BE1F031
:10022000F90140805180628073800F2EF7E08F2E9D
:10023000912CA12CB12CF02D062E04C0880C991CF9
:10024000AA1CBB1C0A94D2F784289528A628B72894
:1002500080829182A282B3826D5F8F5FC82FD0E0CF
:10026000C017D10784F2DF91CF911F910F91FF90BA
:10027000EF90BF90AF909F908F907F906F905F9026
:100280004F900895FF920F931F93CF93DF93D091D8
:100290006D00C091D7006091CE0070E0660F771FAF
:1002A000660F771F90919000690F711D660F771F81
:1002B0006E5B7E4F90E0A1E0B0E01FEF180F082FBB
:1002C0000D7F492F469546954D0F242F392F3370BA
:1002D0003C0FF32E823039F0833049F081110AC08F
:1002E0002FEF240F07C0FF24FA94F30E03C0FF245E
:1002F000F394F30EFB0145915491FD01092E02C0C8
:10030000EE0FFF1F0A94E2F74E235F23452BA9F15E
:100310008430B1F4E22FEE0FFF0BEE56FF4F9D013C
:1003200002C0220F331FFA94E2F740815181242B3F
:10033000352B318320839F5F903168F180E035C099
:1003400022230CF1E22FEE0FFF0BEE56FF4F208120
:100350003181AD010F2C02C0440F551F0A94E2F702
:1003600024233523232B89F4123010F4FF207CF052
:10037000013019F429E02F1564F09F5F903108F4E3
:10038000A0CF80E012C081E010C081E00EC081E00B
:100390000CC081E00AC0E92FE695E6952E2F2D0FBF
:1003A000392F3370F32EFC0EA5CFDF91CF911F9123
:1003B0000F91FF9008952091D5003091D600C9018A
:1003C000817099279195819591098827947B36951D
:1003D0002795822793279093D6008093D500089580
:1003E0008BE180936D0083E08093D7008091910032
:1003F0008093CE0010929000DEDF87708093910092
:10040000873021F09091CE00891306C0D4DF67E0D9
:1004100070E085D5809391000895F89480916E00E6
:1004200090916F0078940895CF92DF92EF92FF92AF
:100430000F931F93CF93DF93082F162F80E2E0E7EF
:10044000F0E0DF011D928A95E9F7660F660F660FEF
:1004500070E020E930E033C0E13278F1E13408F0B7
:10046000E7508E2F90E0C097FC01EE0FFF1FEE0FBC
:10047000FF1FEE0FFF1FE81BF90BEA5BFF4FC4E7FE
:10048000D0E0849190E0A0E0B0E0062E04C0880F98
:10049000991FAA1FBB1F0A94D2F7C880D980EA808F
:1004A000FB808C299D29AE29BF2989939993A99313
:1004B000B9933196C217D30721F76A5F7F5F411561
:1004C000510529F0FA01E70FF11DE49105C0E72F6E
:1004D000F0E0E153FF4FE081E111BECF1430B8F4FA
:1004E000612F802F7BD475D4812F90E0EC01C0590F
:1004F000DF4F9C0120573F4F79018881AED424966D
:10050000EC16FD06D1F7DFD41F5F143049F7DF91F9
:10051000CF911F910F91FF90EF90DF90CF900895B2
:1005200080916400811103C040E450E002C046E3C2
:1005300050E060E088E778DF08956BD48FEA41D41B
:10054000EFDF4CE350E060E088E66EDF8CE3E2E949
:10055000F0E0DF011D928A95E9F70895CF93DF93CC
:10056000C82FD62FCA014AE06FEC70E0ECD440E00F
:1005700050E06D2F8C2F58DFDF91CF9108951092AE
:1005800067001092690010926A0010926800109241
:10059000650010926600B99AC1988BE291E00197CC
:1005A000F1F700C00000B49909C0B39904C081E01C
:1005B0008093650003C081E080936900B998C19A77
:1005C000BB9AC3988BE291E00197F1F700C000005D
:1005D000B49909C0B19904C081E080936A0003C056
:1005E00081E080936600BB98C39ABC9AC4988BE262
:1005F00091E00197F1F700C00000B19903C081E0DC
:1006000080936800B39903C081E080936700BC9831
:10061000C49A0895B4DF80916A008111FBCF809164
:1006200069008111F7CF809167008111F3CF80912C
:1006300068008111EFCF809166008111EBCF80912E
:1006400065008111E7CF089518951F920F920FB69C
:100650000F9211248F939F9380916E0090916F0061
:10066000019690936F0080936E009F918F910F90F1
:100670000FBE0F901F901895CF93DF93CDB7DEB7C5
:100680006A970FB6F894DEBF0FBECDBF88B38A61FC
:1006900088BB81D382E08ABD83E083BF8AEF89BDB6
:1006A00080E189BF789480E090E085D49093D60073
:1006B0008093D50095DE94DE40DFC1D33EDF198EF6
:1006C0001A8E1D861C861F8624E12A8B38E23A8703
:1006D0001C8A1B86198A188A1E8A1D8A41E04B8B48
:1006E0001E8622242394312C0F2EF7E08F2E912C7E
:1006F000A12CB12CF02D91DE988F8F8B809167000B
:10070000882371F080916800882351F090916400F3
:1007100081E089278093640003DF91D301DF7ADFD2
:1007200080916A008823C1F082E0ACDD811109C0AC
:1007300088898150893028F08091D700815080933A
:10074000D70058895A3018F45F5F588B03C08889E6
:100750008150888B30DE01C0188A8091690088231F
:10076000C1F083E08FDD811109C089898150893012
:1007700028F08091D7008F5F8093D70099899A30B5
:1007800018F49F5F998B03C0A989A150A98B13DE30
:1007900001C0198A80916700882389F0BD89B11151
:1007A000B8C21091900081E0810F83708093900017
:1007B00081E068DD811110939000FDDDAAC21D8AE1
:1007C00080916500882339F0EE89E111A5C2F3DD3F
:1007D000F1E0FE87A1C21E8A809166008823F1F0B5
:1007E0002B892223D9F0809160008F3F31F48091D2
:1007F000CE0080936000F4DD0EC09091CE00809317
:10080000CE00909360008BE180936D0083E0809335
:10081000D70010929000CFDD1F861B8A8091680060
:10082000882371F03A85333058F04F854F5F4F87FA
:10083000C2DD80E027DD811109C051E05A8728C15F
:1008400080E020DD882309F41EC102C082E08A878F
:100850009A89992339F0AE85A11104C0BA85B230C6
:1008600009F06DC284E190E0EB858E1B9109F82FB1
:10087000FF0FFA878F858695869586952C853D8511
:10088000280F311D3D872C8784E0FCDCA9DD81E049
:10089000F9DC882309F457C240E350E060E088E4C3
:1008A000C3DD4AE250E060E080E4BEDD44E250E0B7
:1008B00060E088E3B9DD40E450E060E080E3B4DD6F
:1008C00088E090E078D38C018F3F3FEF9307B1F041
:1008D0004C855D854817590788F446E050E062E092
:1008E00070E08FEC90E058D340E050E060E088E2A8
:1008F0009BDDA80160E080E231DE7CC04EE150E08B
:1009000060E088E291DD86E0EFECF0E0DF011D922F
:100910008A95E9F700E1C12C11E4D12C712C6624F1
:1009200063942DDE80916A00882329F0DD2009F48C
:10093000F6C170DEDA9480916900882329F0B3E073
:10094000BD1510F067DED39480916700882369F0AD
:1009500061DE103229F01A3530F41F5F00E105C066
:1009600000E111E402C000E110E2809168008823F8
:1009700069F050DE103229F0123430F0115000E1ED
:1009800005C000E11AE502C000E110E22D2D30E0C3
:10099000711002C0812F01C080E2F901E153FF4FC5
:1009A0007F01808340E050E060E080E23DDDD701E0
:1009B0001C93CA94C11003C07624015049F0809161
:1009C0006600811105C080916500882309F4A9CFD4
:1009D00021DE40E050E060E080E226DD46E050E0CD
:1009E00062E070E08FEC90E0EAD26C857D8588E073
:1009F00090E0FBD26091D5007091D60080E090E04D
:100A0000F4D2F89488E181BD83E481BD789410E547
:100A10000F2EF4E8FF2EF02D00EBB1DDF5BE05BF83
:100A2000889515BE115011F48EEACBD180916A00E1
:100A3000811114C080916900811110C080916700FC
:100A400081110CC080916800811108C080916600FE
:100A5000811104C0809165008823F9F214BE88E1F9
:100A600081BD11BCD7DD69DD109291008FEF8093BD
:100A700060001D861C861F86B4E1BA8B1C8A1B860B
:100A8000E1E0EB8B65C1FA85F150FA87FF2321F095
:100A90002E85211164C115C08AE090E03B85831B3F
:100AA0009109482F440F4A875E85552329F08F8589
:100AB0008E5F8F8791E09E8780916D00815080933B
:100AC0006D00E2E9F0E060E030E0819191918F3FCC
:100AD0009340D8F03D31A0F4232F822F90E0DC0129
:100AE000AA0FBB1FAC56BF4F4D915C91880F991F49
:100AF000DC01AE56BF4F4D935C932F5F2D3169F7EC
:100B00001092CD001092CC006F5F3F5F3E31E9F64E
:100B1000662309F42DC1BC89B60FBC8B623029F065
:100B2000633029F0613029F406C06EE105C062E34C
:100B300003C060E501C06AE0EB858E2F90E070E0B5
:100B40000196D0D12C853D85280F391F3D872C87F4
:100B50008C896AE0D8D18B878A3008F409C139E0E2
:100B60003B8706C16E2D80E039D133D18FEF75D12F
:100B70000F2EF2E9CF2EF0E0DF2EF02D0F2EF1EE4A
:100B8000FF2EF02D00E010E00D830E3108F050C074
:100B9000A801D601ED91FC9161E070E020E030E029
:100BA000412C512C32014394689477F8C101022EF4
:100BB00002C0880F991F0A94E2F78E239F23892B86
:100BC00071F0D501C401062E04C0880F991FAA1F19
:100BD000BB1F0A94D2F7482A592A6A2A7B2A2F5F18
:100BE0003F4F6D5F7F4F2A30310501F749825A82AE
:100BF0006B827C8290916D00292F092E000C330BA3
:100C000042175307DCF12C5F3F4F42175307B4F5EF
:100C10004091CE00440F440F20919000420F9E015E
:100C20002F5F3F4F6091D7008D81891BC8DA26C0A6
:100C3000BD81BE3111F0B23219F48FEF0ED12AC04E
:100C400021E030E840E050E829833A834B835C831D
:100C500040919100440F440F9E012F5F3F4F66E08B
:100C60008F2DADDA409160004F3F41F0440F440FAB
:100C70009E012F5F3F4F60E08F2DA1DAA885B985D7
:100C80007C90872DEAD0EE81FF8184918721E5D089
:100C9000872DE3D00F5F1F4FF394F2E0CF0ED11CEE
:100CA00024E0F21271CF0FD1E394488559854F5F4C
:100CB0005F4F598748878E819F8101969F838E83DE
:100CC00094E0E9124FCFAB854A2F50E063E088E60D
:100CD00045DC80916400811103C04C855D8502C0B4
:100CE000498D5A8D60E080E739DCA9D048DC95DB7E
:100CF000BC01EF89F88D6E1B7F0B88EE93E00FD15E
:100D0000698F7A8F8F0189DB801B910B4997D8F30C
:100D1000F2CCF1E0FD8B54CD21E02E8B5DCD8091A6
:100D20006900882309F410CE0DCE8AE090E03B855F
:100D3000831B9109482F440F4A871E86BDCE5A89CE
:100D400051505A8B05C01F8684E18A8B91E09B8BA2
:100D5000AA85A150AA87AA2341F31E86B2CE8AE0B3
:100D600090E0BB858B1B9109E82FEE0FEA879FCEA1
:100D7000FE85F111C0CC9E012F5F3F4F3987288738
:100D80004AE751E05F834E83E12CECCE88E78DD0BB
:100D900080E063D008950F931F93CF93DF93F6DF26
:100DA000CEE7D1E006E811E0FE01849156D021960D
:100DB000C017D107C9F787D0DF91CF911F910F914D
:100DC0000895CF93C82FE2DF8C2F47D07CD0CF91EE
:100DD000089588E76AD080E440D00895CF93DF93E8
:100DE000C82FD62FD3DF9D2F977080916200892B5B
:100DF00034D08C2F82958F7080612FD08C2F8F7084
:100E00002CD061D0C0936C00D0936B00DF91CF9158
:100E10000895CF93DF93D0E06D2F80E0DFDFD9DF3F
:100E2000CFE780E01AD0C150E1F74DD0DF5FD4307A
:100E300099F760E080E0D2DFDF91CF910895909143
:100E4000610080E2892780936100BBDF909162009E
:100E500084E0892780936200089598E088231CF439
:100E6000B898C09A02C0B89AC098880F0000BA9883
:100E7000C29A26E02A95F1F70000BA9AC29826E0B5
:100E80002A95F1F70000915049F7B898C09A0000F0
:100E9000BA98C29A86E08A95F1F70000BA9AC29889
:100EA00026E02A95F1F700000895B89AC09893E0DB
:100EB0009A95F1F70000BA9AC29896E09A95F1F7E0
:100EC0000000CBDF0895B89AC0980000BA98C29A83
:100ED00083E08A95F1F70000B898C09A87E08A9578
:100EE000F1F708950024552704C0080E591F880FF4
:100EF000991F009729F076956795B8F37105B9F7B2
:100F0000802D952F0895991B79E004C0991F96179D
:100F100008F0961B881F7A95C9F780950895AA1B3B
:100F2000BB1B51E107C0AA1FBB1FA617B70710F0D4
:100F3000A61BB70B881F991F5A95A9F78095909506
:100F4000BC01CD010895BB27FB015527AA27880FB7
:100F5000991FAA1FA41710F0A41B83955051B9F72D
:100F6000A05DAA3308F0A95DA193009779F7B111AC
:100F7000B1931192CB0100C0DC01FC01672F71918C
:100F80007723E1F7329704C07C916D93708362916F
:100F9000AE17BF07C8F30895DC01862FE82FE1994B
:100FA000FECF1FBA05C0EEBBE09AE3950DB20D92DD
:100FB0004150C8F70895A8E1B0E042E0EFCFDC016E
:100FC000862F02C02D9104D04150E0F70895262FBE
:100FD000E199FECF1CBA1FBA8EBB2DBB0FB6F89499
:100FE000E29AE19A0FBE01960895F1DF272FF0CF24
:040FF000F894FFCFA3
:040FF400FF40B0000A
:00000001FF
