:10000000BFC0D9C0D8C0D7C0D6C0D5C0D4C0D3C057
:10001000D2C0D1C027C5CFC0CCC2CDC0CCC0204E2D
:10002000414D4500484947482000204F5645520061
:100030002047414D45004C45560053434F52450023
:100040000E11131519110E0E0404040406041F02E8
:10005000040810110E0E11100804081F08081F09CB
:100060000A0C080E1110100F011F0E11110F0102C2
:100070000C0202020408101F0E11110E11110E06BF
:1000800008101E11110E11111F11110A040F111168
:100090000F11110F0E11010101110E07091111119C
:1000A00009071F01010F01011F0101010F01011FBC
:1000B0001E11111D01110E1111111F1111110E042C
:1000C000040404040E0609080808081C11090503A5
:1000D0000509111F01010101010111111115151B64
:1000E00011111119151311110E11111111110E0108
:1000F00001010F11110F1609151111110E1109052A
:100100000F11110F0F10100E01011E04040404043E
:10011000041F0E111111111111040A1111111111E5
:100120000A15151511111111110A040A11110404EF
:10013000040A1111111F01020408101F000F44448A
:10014000F0002222700122067400230270042602AD
:1001500071002203600660066006600630066402D5
:1001600063003201700262027200320260036204B4
:1001700036003102DBB66DDBC8A1A81FDA028D1490
:1001800011241FBECFE5D1E0DEBFCDBF10E0A0E659
:10019000B0E0EAECFFE002C005900D92A236B10794
:1001A000D9F720E0A2E6B0E001C01D92A53DB2075C
:1001B000E1F776D408C724CF4F925F926F927F9277
:1001C0008F929F92AF92BF92EF92FF920F931F93E5
:1001D000CF93DF93880F880F962F990F690F6F5F6A
:1001E000C82FD0E08E010C5F1F4FC017D107C4F598
:1001F00050E0440F551F445C5E4FEE24E394F12C15
:10020000FA01A591B491F70102C0EE0FFF1FCA9544
:10021000E2F7AE23BF23AB2BE1F0F9014080518020
:10022000628073800F2EF7E08F2E912CA12CB12CC1
:10023000F02D062E04C0880C991CAA1CBB1C0A9425
:10024000D2F784289528A628B72880829182A28296
:10025000B3826D5F8F5FC82FD0E0C017D10784F2E3
:10026000DF91CF911F910F91FF90EF90BF90AF90D2
:100270009F908F907F906F905F904F9008952F92F6
:100280003F924F925F926F927F928F929F92AF9226
:10029000BF92CF92DF92EF92FF920F931F93CF9373
:1002A000DF93CDB7DEB729970FB6F894DEBF0FBE48
:1002B000CDBFCE0101969F838E83A4E7B1E0B987BD
:1002C000A887212C01E010E00F2EF7E08F2E912C53
:1002D000A12CB12CF02DC22C6C2D80E071D56BD5EA
:1002E0008FEFA0D50F2EFBE82F2EF0E03F2EF02D44
:1002F0000F2EF1EEDF2EF02DE12CF12CED82BE2D34
:10030000BE3108F050C0A701D101ED91FC9161E030
:1003100070E020E030E0412C512C3201439468948D
:1003200077F8C801022E02C0880F991F0A94E2F7DD
:100330008E239F23892B71F0D501C401062E04C0A2
:10034000880F991FAA1FBB1F0A94D2F7482A592A5F
:100350006A2A7B2A2F5F3F4F6D5F7F4F2A3031051E
:1003600001F749825A826B827C8290916500292F25
:10037000092E000C330B42175307DCF12C5F3F4F63
:1003800042175307B4F54091C700440F440F209122
:100390008900420F9E012F5F3F4F6091D3008D81F6
:1003A000891B0ADF26C0BD81BE3111F0B23219F4BB
:1003B0008FEF38D52AC081E090E8A0E0B0E88983CB
:1003C0009A83AB83BC8340918A00440F440F9E0103
:1003D0002F5F3F4F66E08D2DEFDE409160004F3F75
:1003E00041F0440F440F9E012F5F3F4F60E08D2D81
:1003F000E3DEAE81BF817C90872D14D5E885F98539
:10040000849187210FD5872D0DD5FFEFEF1AFF0AB5
:10041000D39482E0280E311C94E0D9126FCF3CD5E2
:10042000C394AE81BF811196BF83AE83E885F98501
:100430003196F987E887F4E0CF124ECF29960FB6B0
:10044000F894DEBF0FBECDBFDF91CF911F910F910A
:10045000FF90EF90DF90CF90BF90AF909F908F90E4
:100460007F906F905F904F903F902F900895CF9224
:10047000DF92EF92FF920F931F93CF93DF93082F9A
:10048000162F80E2E9E6F0E0DF011D928A95E9F798
:10049000660F660F660F70E029E830E033C0E13286
:1004A00078F1E13408F0E7508E2F90E0C097FC011E
:1004B000EE0FFF1FEE0FFF1FEE0FFF1FE81BF90BE4
:1004C000E05CFF4FCDE6D0E0849190E0A0E0B0E0AA
:1004D000062E04C0880F991FAA1FBB1F0A94D2F7CB
:1004E000C880D980EA80FB808C299D29AE29BF294C
:1004F00089939993A993B9933196C217D30721F79A
:100500006A5F7F5F4115510529F0FA01E70FF11D80
:10051000E49105C0E72FF0E0E853FF4FE081E111DF
:10052000BECF1430B8F4612F802F4AD444D4812F29
:1005300090E0EC01C759DF4F9C0127573F4F7901ED
:10054000888170D42496EC16FD06D1F7A5D41F5FE0
:10055000143049F7DF91CF911F910F91FF90EF90E9
:10056000DF90CF900895CF93DF93C82FD62FCA0185
:100570004AE068EC70E0D2D440E050E06D2F8C2F60
:1005800076DFDF91CF91089536D48FEA0CD44AE319
:1005900050E060E088E76BDF46E350E060E088E62B
:1005A00066DF8CE3EBE8F0E0DF011D928A95E9F766
:1005B00008951895FF920F931F93CF93DF93D091D7
:1005C0006500C091D3006091C70070E0660F771F8F
:1005D000660F771F90918900690F711D660F771F55
:1005E000645C7E4F90E0A1E0B0E01FEF180F082F91
:1005F0000D7F492F469546954D0F242F392F337087
:100600003C0FF32E823039F0833049F081110AC05B
:100610002FEF240F07C0FF24FA94F30E03C0FF242A
:10062000F394F30EFB0145915491FD01092E02C094
:10063000EE0FFF1F0A94E2F74E235F23452BA9F12B
:100640008430B1F4E22FEE0FFF0BE557FF4F9D0111
:1006500002C0220F331FFA94E2F740815181242B0C
:10066000352B318320839F5F903168F180E035C066
:1006700022230CF1E22FEE0FFF0BE557FF4F2081F5
:100680003181AD010F2C02C0440F551F0A94E2F7CF
:1006900024233523232B89F4123010F4FF207CF01F
:1006A000013019F429E02F1564F09F5F903108F4B0
:1006B000A0CF80E012C081E010C081E00EC081E0D8
:1006C0000CC081E00AC0E92FE695E6952E2F2D0F8C
:1006D000392F3370F32EFC0EA5CFDF91CF911F91F0
:1006E0000F91FF900895CF93DF93ABE8B0E080E0E7
:1006F00060E0ED012D913D912F3F3340C8F06D3109
:10070000A0F4962F292F30E0F901EE0FFF1FE357D9
:10071000FF4F40815181220F331FF901E557FF4FF1
:10072000518340839F5F9D3169F71BAE1AAE8F5F87
:100730006F5F6E31F9F6DF91CF9108952091D0006F
:100740003091D100C90181709927919581959109C6
:100750008827947B36952795822793279093D100FD
:100760008093D00008958BE18093650083E08093AF
:10077000D30080918A008093C70010928900DEDF49
:10078000877080938A00873021F09091C700891389
:1007900006C0D4DF67E070E0ADD380938A0008958F
:1007A0001092D200109264001092CE001092D400E9
:1007B0001092CF0010926800B99AC1988BE291E034
:1007C0000197F1F700C00000B49909C0B39904C0C3
:1007D00081E08093CF0003C081E080936400B998EA
:1007E000C19ABB9AC3988BE291E00197F1F700C0E0
:1007F0000000B49909C0B19904C081E08093CE0093
:1008000003C081E080936800BB98C39ABC9AC498E7
:100810008BE291E00197F1F700C00000B19903C0AD
:1008200081E08093D400B39903C081E08093D2002B
:10083000BC98C49A0895B4DF8091CE008111FBCF9B
:10084000809164008111F7CF8091D2008111F3CFA4
:100850008091D4008111EFCF809168008111EBCF9E
:100860008091CF008111E7CF0895AF92BF92CF92D0
:10087000DF92EF92FF920F931F93CF93DF936C0160
:1008800040E350E060E088E4F2DD4AE250E060E0FE
:1008900080E4EDDD44E250E060E088E3E8DD4AE337
:1008A00050E060E080E3E3DD88E090E06FD3EC01AE
:1008B000C816D90688F446E050E062E070E088ECA3
:1008C00090E055D340E050E060E088E2D0DDAE013A
:1008D00060E080E248DE7CC04EE150E060E088E20B
:1008E000C6DD86E0E8ECF0E0DF011D928A95E9F7CD
:1008F0000F2EF0E5BF2EF02D00E011E4F12CE12CDD
:10090000AA24A3944DDF8091CE00882329F0FF20F4
:1009100009F458C090DFFA9480916400882329F08C
:10092000B3E0BF1510F087DFF3948091D2008823E5
:1009300051F081DF103221F01A3520F41F5F03C01F
:1009400011E401C010E28091D400882351F073DFDC
:10095000103221F0123420F0115003C01AE501C00A
:1009600010E2CF2DD0E0E11002C0812F01C080E263
:10097000C853DF4F888340E050E060E080E277DDDD
:100980001883015021F4EA24BA94BB2049F08091E5
:100990006800811105C08091CF00882309F4B2CF8F
:1009A0004ADF40E050E060E080E261DD46E050E098
:1009B00062E070E088EC90E0EDD2B60188E090E073
:1009C000FFD206C080916400882309F4AECFABCF7C
:1009D000DF91CF911F910F91FF90EF90DF90CF901B
:1009E000BF90AF900895CF936091D0007091D100E7
:1009F00080E090E0E5D2F89488E181BD83E481BD98
:100A0000789485B7877E806185BFC0E5C9DE85B7EC
:100A1000806285BF889585B78F7D85BFC15011F4F1
:100A20008EEAC1D18091CE00811114C08091640002
:100A3000811110C08091D20081110CC08091D4002E
:100A4000811108C080916800811104C08091CF009D
:100A50008823E1F214BE88E181BD11BCECDE94DD97
:100A6000CF9108951F920F920FB60F9211248F937A
:100A70009F93809166009091670001969093670024
:100A8000809366009F918F910F900FBE0F901F90E3
:100A90001895F89480916600909167007894089575
:100AA000CF93DF9300D000D0CDB7DEB788B38A6193
:100AB00088BB63D182E08ABD83E083BF8AEF89BDB2
:100AC00080E189BF789480E090E060D29093D1007B
:100AD0008093D00048DE47DE57DDE12CF12C712CED
:100AE00024E12A8318E2412C00E0512C612C212CB6
:100AF000312C31E03983812C912C0F2EFAE0CF2E4E
:100B0000D12CF02D0F2EF4E1AF2EB12CF02DC1DF42
:100B10009C838B838091CE008823D1F082E04ADDD4
:100B2000811109C08FEF860D893028F08091D300A4
:100B300081508093D30089E0861510F0639401C042
:100B40006A94FCDD8091CE00811103C0612C01C04C
:100B5000612C809164008823D1F083E02BDD81112A
:100B600009C08FEF850D893028F08091D3008F5F09
:100B70008093D30029E0251510F0539401C05A94B6
:100B8000DDDD80916400811103C0512C01C0512C26
:100B90008091D200882391F0311011C030908900EB
:100BA00081E0830D83708093890081E003DD8111F2
:100BB00030928900C3DD3090D20001C0392C809181
:100BC000CF00882341F0211007C0B8DD2090CF006E
:100BD0008824839401C0292C809168008823F1F037
:100BE00039813323D9F0809160008F3F31F48091B7
:100BF000C70080936000B7DD0EC09091C70080935E
:100C0000C700909360008BE18093650083E0809340
:100C1000D3009092890092DD712C99828091D4004A
:100C2000882351F0133040F0739488DD892DC2DCA5
:100C3000811107C011E034C0892DBCDC882371F11B
:100C400001C012E02A81222329F0811003C0123052
:100C500009F078C0C501801B9109182F110F7694F7
:100C600076947694E70CF11C84E0A4DC7CDD81E0D2
:100C7000A1DC882309F46AC0C701F7DDB4DE9092D5
:100C80008A003FEF30936000E12CF12C712C84E15D
:100C90008A83412C092D21E029835DC0115019F070
:100CA00081105CC061C0C601801B9109182F110F13
:100CB000882021F073947394882483948091650034
:100CC0008150809365000FDD8823F9F001C0892CE5
:100CD000480E823029F0833029F0813029F406C093
:100CE0006EE105C062E303C060E501C06AE0802FE9
:100CF00090E070E00196E1D0E80EF91E842D6AE0E4
:100D0000EDD0082F8A3008F009E0811000CFB7DA63
:100D1000402F50E063E088E626DCA701692D80E7DC
:100D200022DC3EDDB6DE2B813C81821B930B499792
:100D3000C8F3892CECCEC601801B9109182F110F26
:100D4000892CBCCF3A8131503A8305C0712C84E1A3
:100D50008A8321E02983115071F306C0C601801BEC
:100D60009109182F110FA6CFBEDC8111B0CFCFCFC4
:100D700088E784D080E056D008950F931F93CF93D7
:100D8000DF93F6DFC8E7D1E000E811E0FE018491CF
:100D900049D02196C017D107C9F77ED0DF91CF91F6
:100DA0001F910F910895CF93C82FE2DF8C2F3AD077
:100DB00073D0CF91089588E761D080E433D008954F
:100DC000CF93DF93C82FD62FD3DF9D2F97708091BD
:100DD0006100892B27D08C2F82958F70806122D063
:100DE0008C2F8F701FD058D0C0936300D0936200B7
:100DF000DF91CF910895CF93DF93D0E06D2F80E006
:100E0000DFDFD9DFC0E080E00DD0CF5FC038D9F799
:100E100043D0DF5FD43091F760E080E0D1DFDF9135
:100E2000CF91089598E088231CF4B898C09A02C026
:100E3000B89AC098880F00C000C00000BA98C29A43
:100E400024E02A95F1F70000BA9AC29824E02A9586
:100E5000F1F70000915039F7B898C09A00C000C06F
:100E60000000BA98C29A84E08A95F1F70000BA9A15
:100E7000C29824E02A95F1F700000895B89AC09826
:100E800093E09A95F1F70000BA9AC29894E09A9587
:100E9000F1F70000C7DF0895B89AC09800C000C0FD
:100EA0000000BA98C29A83E08A95F1F70000B898DA
:100EB000C09A87E08A95F1F708950024552704C069
:100EC000080E591F880F991F009729F0769567958E
:100ED000B8F37105B9F7802D952F0895991B79E026
:100EE00004C0991F961708F0961B881F7A95C9F7BA
:100EF00080950895AA1BBB1B51E107C0AA1FBB1F09
:100F0000A617B70710F0A61BB70B881F991F5A9595
:100F1000A9F780959095BC01CD010895BB27FB01F1
:100F20005527AA27880F991FAA1FA41710F0A41BE2
:100F300083955051B9F7A05DAA3308F0A95DA1933C
:100F4000009779F7B111B1931192CB0100C0DC0188
:100F5000FC01672F71917723E1F7329704C07C91F0
:100F60006D9370836291AE17BF07C8F30895DC01DB
:100F7000862FE82FE199FECF1FBA05C0EEBBE09A9D
:100F8000E3950DB20D924150C8F70895A8E1B0E085
:100F900042E0EFCFDC01862F02C02D9104D04150FA
:100FA000E0F70895262FE199FECF1CBA1FBA8EBB39
:100FB0002DBB0FB6F894E29AE19A0FBE0196089500
:0A0FC000F1DF272FF0CFF894FFCFE8
:020FCA00FFB076
:00000001FF
