:1000000027C141C140C13FC13EC13DC13CC13BC10F
:100010003AC139C138C137C136C135C134C14F7653
:1000200065720047616D65004C760053636F720026
:100030000F0022220F002222170023027400220642
:100040004700220371002602660066006600660013
:1000500063006402630064022700320272006202DD
:100060003600620436006204DBB66DDBC8A1A81F4F
:10007000DA028D14000000000000002F00000007CD
:10008000000700147F147F14242A7F2A1262640858
:10009000132336495522500005030000001C22415D
:1000A000000041221C0014083E081408083E0808FD
:1000B0000000A06000080808080800606000002038
:1000C000100804023E5149453E00427F4000426113
:1000D0005149462141454B311814127F102745459F
:1000E00045393C4A494930017109050336494949B6
:1000F00036064949291E00363600000056360000F3
:10010000081422410014141414140041221408028B
:1001100001510906324959513E7C1211127C7F4926
:100120004949363E414141227F4141221C7F494994
:1001300049417F090909013E4149497A7F08080878
:100140007F00417F41002040413F017F0814224150
:100150007F404040407F020C027F7F0408107F3EBA
:100160004141413E7F090909063E4151215E7F0917
:10017000192946464949493101017F01013F404063
:10018000403F1F2040201F3F4038403F6314081469
:100190006307087008076151494543007F414100EA
:1001A00002040810200041417F00040201020440C3
:1001B00040404040000102040020545454787F48DD
:1001C0004444383844444420384444487F385454E4
:1001D0005418087E09010218A4A4A47C7F08040412
:1001E0007800447D40004080847D007F10284400DA
:1001F00000417F40007C041804787C0804047838AF
:1002000044444438FC2424241818242418FC7C0872
:100210000404084854545420043F4440203C4040C7
:10022000207C1C2040201C3C4030403C44281028AE
:10023000441CA0A0A07C4464544C440836414100B6
:1002400000007F0000004141360808040810080043
:1002500011241FBECFE5D1E0DEBFCDBF10E0A0E688
:10026000B0E0ECE0FEE002C005900D92A436B107CC
:10027000D9F720E0A4E6B0E001C01D92A13BB2078F
:10028000E1F74CD3C1C5BCCE00C000C000C000C067
:1002900000C000C000000895B898BA98C098C298ED
:1002A0000895B89AF1DF1DD00895BA9AEDDFB89895
:1002B000EBDFBA98E9DFB89AE7DF13D00895082E8C
:1002C000B89AE2DF802D0DD0882311F002D0F8CF4C
:1002D0000895BA9AB89AD8DFBA98D6DFB898D4DF1A
:1002E00008950894881F01C0880F59F0BA9A18F42D
:1002F0000000B89802C0B89A00C0C6DFBA98C4DF40
:10030000F3CFBA9AB898C0DFBA98B29BFECF8827CD
:10031000B09981E0B9DF99270895882701C081E06D
:1003200071E0BA9AB898B0DFBA98AEDFB29BFECF50
:100330008894B0990894771FA0F7BA9A813011F089
:10034000B89801C0B89AA0DFBA98B29BFECF9CDFE4
:10035000872F992708954F925F926F927F928F9285
:100360009F92AF92BF92EF92FF920F931F93CF9302
:10037000DF93880F880F962F990F690F6F5FC82F33
:10038000D0E08E010C5F1F4FC017D107C4F550E0BD
:10039000440F551F405D5F4FEE24E394F12CFA01AA
:1003A000A591B491F70102C0EE0FFF1FCA95E2F7C5
:1003B000AE23BF23AB2BE1F0F90140805180628076
:1003C00073800F2EF7E08F2E912CA12CB12CF02DE5
:1003D000062E04C0880C991CAA1CBB1C0A94D2F7D8
:1003E00084289528A628B72880829182A282B38289
:1003F0006D5F8F5FC82FD0E0C017D10784F2DF9107
:10040000CF911F910F91FF90EF90BF90AF909F9071
:100410008F907F906F905F904F9008952F923F92B2
:100420004F925F926F927F928F929F92AF92BF9204
:10043000CF92DF92EF92FF920F931F93CF93DF93B0
:10044000CDB7DEB729970FB6F894DEBF0FBECDBF8C
:10045000CE0101969F838E83A8E6B0E0B987A88776
:10046000212C01E010E00F2EF7E08F2E912CA12C13
:10047000B12CF02DC22C6C2D80E0A3D39DD38FEF37
:1004800030DF0F2EFBE62F2EF0E03F2EF02D0F2E4B
:10049000F1EEDF2EF02DE12CF12CED82BE2DBE31E0
:1004A00008F050C0A701D101ED91FC9161E070E02E
:1004B00020E030E0412C512C32014394689477F8CD
:1004C000C801022E02C0880F991F0A94E2F78E23FA
:1004D0009F23892B71F0D501C401062E04C0880F1B
:1004E000991FAA1FBB1F0A94D2F7482A592A6A2AC1
:1004F0007B2A2F5F3F4F6D5F7F4F2A30310501F719
:1005000049825A826B827C8290916700292F092E42
:10051000000C330B42175307DCF12C5F3F4F42179F
:100520005307B4F54091A700440F440F2091690090
:10053000420F9E012F5F3F4F6091AF008D81891B5D
:100540000ADF26C0BD81BE3111F0B13219F48FEF40
:10055000C8DE2AC081E090E8A0E0B0E889839A83F1
:10056000AB83BC8340916A00440F440F9E012F5F10
:100570003F4F66E08D2DEFDE409162004F3F41F02E
:10058000440F440F9E012F5F3F4F60E08D2DE3DE4F
:10059000AE81BF817C90872DA4DEE885F9858491AA
:1005A00087219FDE872D9DDEFFEFEF1AFF0AD39490
:1005B00082E0280E311C93E0D9126FCF8ADEC394FB
:1005C000AE81BF811196BF83AE83E885F9853196F0
:1005D000F987E887F4E0CF124ECF29960FB6F8944A
:1005E000DEBF0FBECDBFDF91CF911F910F91FF9066
:1005F000EF90DF90CF90BF90AF909F908F907F90C3
:100600006F905F904F903F902F900895EF92FF92E0
:100610000F931F93CF93DF93C09167007091AF004A
:100620002091A70030E0220F331F220F331F90913B
:100630006900290F311D220F331F205D3F4F60E0FD
:1006400041E050E01FEF180FD82FDD7FE62FE69531
:10065000E6959E2F9C0FE62FE370E70F0E2F82305A
:1006600031F0833039F0811107C0915005C00FEF90
:100670000E0F02C001E00E0FF901A591B491FA012D
:10068000062E02C0EE0FFF1F0A94E2F7AE23BF232F
:10069000AB2BB1F18430B9F4E92FF0E0EE0FFF1F7E
:1006A000E559FF4FDA0102C0AA0FBB1F0A95E2F716
:1006B000E080F180AE29BF29B183A0836F5F6031F4
:1006C00048F190E030C0E92FF0E0EE0FFF1FE55950
:1006D000FF4F0190F081E02DDA01002E02C0AA0F39
:1006E000BB1F0A94E2F7EA23FB23EF2B79F41230C5
:1006F00010F400236CF09D2FD13011F40A309CF4DB
:100700006F5F603108F4A2CF90E00DC091E00BC0A4
:1007100091E009C0E62FE695E6959E2F9C0F062FE7
:100720000370070FA9CF892FDF91CF911F910F91F0
:10073000FF90EF900895CF93DF93ABE6B0E080E0B9
:1007400060E0ED012D913D912F3F3340C8F06D31B8
:10075000A0F4962F292F30E0F901EE0FFF1FE35987
:10076000FF4F40815181220F331FF901E559FF4F9F
:10077000518340839F5F9D3169F71BAE1AAE8F5F37
:100780006F5F6E31F9F6DF91CF9108959C01217072
:1007900033273195219531092227347B969587950A
:1007A0008227932708958091600090916100EEDF89
:1007B000909361008093600008958CE180936700BE
:1007C00083E08093AF0080916A008093A70010922D
:1007D0006900E9DF877080936A00873021F090918B
:1007E000A700891306C0DFDF67E070E0D0D28093F6
:1007F0006A000895109268001092AD001092B00047
:100800001092AC00109266001092AE00B99AC19896
:100810008BE291E00197F1F700C00000B49909C0A4
:10082000B39904C081E08093AD0003C081E0809360
:100830006600B998C19ABB9AC3988BE291E0019780
:10084000F1F700C00000B49909C0B19904C081E07B
:100850008093AC0003C081E080936800BB98C39A8A
:10086000BC9AC4988BE291E00197F1F700C00000B8
:10087000B19903C081E08093B000B39903C081E0D7
:100880008093AE00BC98C49A089580E0CDD18FEAE1
:100890008BD16BE270E088E73DD268E270E088E6D9
:1008A00039D28CE3EBE6F0E0DF011D928A95E9F79F
:1008B0000895CF9363E270E080E42CD26EE170E0A3
:1008C00088E328D2CFEF0FC095DF2FEF89EF90E0BC
:1008D000215080409040E1F700C00000C11102C0EB
:1008E0008EEA62D1C1508091AC00811114C0809118
:1008F0006600811110C08091AE0081110CC0809102
:10090000B000811108C080916800811104C08091FD
:10091000AD008823C9F2B9DFCF91089588B38A6109
:1009200088BBBADC2BD1B1DF48DFE12CF12CC12C24
:10093000D12CA12CB12C00E0312CCAE09924939445
:1009400010E0D0E00F2EFCE17F2EF02D0F2EF9E00D
:100950008F2EF02D0F2EF5E05F2EF02D689466247B
:1009600063F844244A948091AC008823C1F082E06B
:100970004DDE811109C08FEF8D0D893028F08091F7
:10098000AF0081508093AF0029E02D1508F0D3947B
:100990000ADF8091AC00811103C0D12C01C0D12CA1
:1009A000809166008823C1F083E030DE811109C0A8
:1009B0008FEF8C0D893028F08091AF008F5F80938E
:1009C000AF0089E08C1508F0C394EDDE80916600DD
:1009D000811103C0C12C01C0C12C8091AE008823BD
:1009E000B9F0B11016C0B090690081E08B0D837032
:1009F0008093690081E00ADE8111B0926900D3DE44
:100A0000BB24B3948091AE00811103C0BD2E01C000
:100A1000BD2E8091AD00882361F0A1100BC0C3DE14
:100A2000AA24A3948091AD00811101C0AD2E11E0E4
:100A300001C0AD2E809168008823D9F09920C9F0BB
:100A4000809162008F3F31F48091A7008093620013
:100A5000B4DE0DC09091A7008093A7009093620030
:100A60007092670083E08093AF00D09369009BDEB3
:100A70009D2E8091B000882331F095DE8D2FC6DD4C
:100A8000882319F105C08D2FC1DD8823B1F001C085
:100A9000C0E084E0BBDD809167008B3144F009DF6A
:100AA000D0936A0040926200E12CF12C3D2E85DE4D
:100AB000CC2341F09924939457C0CC2331F01111E9
:100AC00004C052C0992493941D2FCAE0C319809189
:100AD000670018163CF48150809367002CDE81116A
:100AE00008C024C084E092DD68DE992493943DC060
:100AF0001D2F080F833031F0843031F0823029F41B
:100B000083E003C0852D01C0862D232D30E0682FA2
:100B100070E0C90101961ED1E80EF91E802F6AE02F
:100B20002AD1382E99E0981708F4382C11111BCFD0
:100B300075DC63E088E645D080E3830D87D04AE02A
:100B400068EA70E0C70137D168EA70E080E7C9D091
:100B500051DE2FEF89EF90E0215080409040E1F787
:100B600000C000001D2FFFCEC150E5DD8111C0CFB8
:100B7000DFCF88E796DB80E0B4DB08950F931F9307
:100B8000CF93DF93F6DFCCE6D0E004E710E0FE0180
:100B90008491A7DB2196C017D107C9F79ADBDF91B3
:100BA000CF911F910F910895CF93C82FE2DF8C2F23
:100BB00098DB8FDBCF91089588E773DB80E491DBCE
:100BC0000895CF93DF93C82FD62FD3DF9D2F977033
:100BD00080916300892B85DB8C2F82958F708061DB
:100BE00080DB8C2F8F707DDB74DBC0936500D0932E
:100BF0006400DF91CF910895CF93DF93D82FC62F54
:100C000080916500860F80936500D6DF8D2F69DBAC
:100C1000C150E1F75EDBDF91CF91089590916500BF
:100C200060E8691BE9DF0895CF93DF93D82FC0E018
:100C30006C2F80E0C6DF8D2FF1DFCF5FC430C1F7AE
:100C400060E080E0BEDFDF91CF910895FF920F93C7
:100C50001F93CF93DF93C82FAFDF8C2F90E0EC0171
:100C6000CC0FDD1FCC0FDD1FC80FD91FC05AD10913
:100C70000F2EF7E0FF2EF02D01E010E01BC0F90170
:100C8000EC0FFD1FEC58FF4FE491F0E0E423F52357
:100C9000EF2B41F0B801022E02C0660F771F0A94B5
:100CA000E2F7862B2150310950F71BDBFA948FEFC6
:100CB000F81659F0A8010F2C02C0440F551F0A94D2
:100CC000E2F724E030E080E0DACF03DB80916500DA
:100CD000885F80936500DF91CF911F910F91FF9006
:100CE00008950F931F93CF93DF93FB019081992376
:100CF00061F0082FEB0110E0612F802F62DF8991F6
:100D0000A5DF1F5F98819111F7CFDF91CF911F91E0
:100D10000F910895FF920F931F93CF93DF938B0151
:100D20000F5F1F4FFB01C491CC2371F0F82ED0E070
:100D30006D2F8F2D46DF8C2F89DFDF5FF801C49187
:100D40000F5F1F4FC111F4CFDF91CF911F910F9112
:100D5000FF9008950024552704C0080E591F880FDE
:100D6000991F009729F076956795B8F37105B9F743
:100D7000802D952F0895991B79E004C0991F96172F
:100D800008F0961B881F7A95C9F780950895AA1BCD
:100D9000BB1B51E107C0AA1FBB1FA617B70710F066
:100DA000A61BB70B881F991F5A95A9F78095909598
:100DB000BC01CD010895BB27FB015527AA27880F49
:100DC000991FAA1FA41710F0A41B83955051B9F7BF
:100DD000A05DAA3308F0A95DA193009779F7B1113E
:100DE000B1931192CB0100C0DC01FC01672F71911E
:100DF0007723E1F7329704C07C916D937083629101
:0C0E0000AE17BF07C8F30895F894FFCFA9
:040E0C000100FFB032
:00000001FF
